:100000000C9434000C9451000C9451000C94510049
:100010000C9451000C9451000C9451000C9451001C
:100020000C9451000C9451000C9451000C9451000C
:100030000C9451000C9451000C9451000C945100FC
:100040000C94AB000C9451000C9451000C94510092
:100050000C9451000C94E6000C9451000C94510047
:100060000C9451000C94510011241FBECFEFD8E026
:10007000DEBFCDBF11E0A0E0B1E0EAE5F2E002C0F2
:1000800005900D92A430B107D9F721E0A4E0B1E0CA
:1000900001C01D92AD30B207E1F70E949C000C94A4
:1000A0002B010C9400008FEF8AB91BB814B815B857
:1000B00010920C0110920B0185E085BD14BC80915B
:1000C000010186BD81E080936E0080E480937C0016
:1000D0008EEE80937A0010927B0078940895809140
:1000E0000001813099F4809104018F5F80930401B5
:1000F000873010F01092000121E030E0A90102C029
:10010000440F551F8A95E2F74BB90895811113C02A
:1001100080910401815080930401811103C091E01A
:100120009093000121E030E0A90102C0440F551F67
:100130008A95E2F74BB908950E945300809105011A
:100140009091060181309105E9F75F9A10920601BE
:1001500010920501F3CF1F920F920FB60F92112448
:100160002F933F934F935F936F937F938F939F93BF
:10017000AF93BF93EF93FF938091010186BD809170
:100180000B0190910C01019690930C0180930B014F
:1001900020910701309108018217930730F00E94E7
:1001A0006F0010920C0110920B01FF91EF91BF9123
:1001B000AF919F918F917F916F915F914F913F91FF
:1001C0002F910F900FBE0F901F9018951F920F92B6
:1001D0000FB60F9211242F933F934F938F939F93BA
:1001E000809178009091790090930A0180930901A1
:1001F000009739F121E030E03093060120930501AA
:100200009C01215031092E3F314058F48DE790E098
:10021000909302018093010190930801809307015C
:1002200010C092508F3F914060F48EE890E0909320
:1002300002018093010187E390E09093080180938D
:1002400007019F918F914F913F912F910F900FBE7A
:0A0250000F901F901895F894FFCF4F
:04025A00017D000022
:00000001FF
