S010000050726F6A656374312E737265630C
S11300000C9434000C9446000C9446000C94460066
S11300100C9446000C9446000C9446000C94460044
S11300200C9446000C9446000C9446000C94460034
S11300300C9446000C9446000C9446000C94460024
S11300400C948F010C9446000C9446000C944600CA
S11300500C9446000C94DF010C9446000C9446006A
S11300600C9446000C94460011241FBECFEFD8E038
S1130070DEBFCDBF21E0A0E0B1E001C01D92A03100
S1130080B207E1F70E9466010C9424020C9400006C
S11300908FEF8AB91BB814B880E385B910920501B3
S11300A010920401109207011092060181E090E081
S11300B090930F0180930E018DE790E090930D01D2
S11300C080930C0110920B0110920A011092090105
S11300D010920801109203011092020185E085BD7F
S11300E014BC80910C0190910D0186BD81E0809338
S11300F06E0080E480937C008EEE80937A001092F0
S11301007B00789408952091080130910901232BF4
S113011021F52091020130910301215031093093DE
S113012003012093020120910201309103018217FF
S1130130930734F081E090E09093090180930801E3
S1130140209102013091030181E090E002C0880F08
S1130150991F2A95E2F78BB908958091080190912F
S113016009010197F9F4809102019091030101962C
S11301709093030180930201809102019091030105
S1130180079724F0109209011092080120910201AE
S11301903091030181E090E002C0880F991F2A95F5
S11301A0E2F78BB90895892B09F459C080910001B5
S11301B0909101018138910510F41BB80895809144
S11301C00001909101018130914018F481E08BB9D4
S11301D0089580910001909101018138914018F4B3
S11301E083E08BB9089580910001909101018130E1
S11301F0924018F487E08BB90895809100019091A2
S113020001018038924018F48FE08BB908958091F1
S11302100001909101018115934018F48FE18BB98D
S1130220089580910001909101018038934018F461
S11302308FE38BB9089580910001909101018F3F64
S1130240934018F48FE78BB9089580910001909141
S113025001018F3F9340C9F58FEF8BB908958BB19E
S1130260807F8BB980910001909101018130914090
S113027018F48BB18BB9089580910001909101011C
S11302808130924010F4589A089580910001909121
S113029001018115934020F48BB183608BB90895DB
S11302A080910001909101018F3F934020F48BB124
S11302B087608BB9089580910001909101018F3F6F
S11302C0934019F48BB18F608BB908950E94480054
S11302D0C1E0D0E08091060190910701892BD1F310
S11302E01D9B0EC01C99F6CFD0930F01C0930E0135
S11302F0CE010E94D3001092070110920601EACFAA
S11303001D99E8CF10920F0110920E0180E090E049
S11303100E94D3001092070110920601DBCF1F92B6
S11303200F920FB60F9211242F933F934F935F9325
S11303306F937F938F939F93AF93BF93EF93FF93A9
S113034080910C0190910D0186BD809104019091E2
S11303500501019690930501809304012091040105
S11303603091050180910A0190910B0128173907FA
S1130370A8F01D9B0BC01C9B11C080E090E00E9464
S11303808300109205011092040108C084E090E0FB
S11303900E9483001092050110920401FF91EF91D5
S11303A0BF91AF919F918F917F916F915F914F9189
S11303B03F912F910F900FBE0F901F9018951F9291
S11303C00F920FB60F9211242F938F939F938091C6
S11303D0780090917900909301018093000181E06D
S11303E090E0909307018093060180910001909121
S11303F001018F3F914068F487E290E090930D01F2
S113040080930C0189E090E090930B0180930A01A2
S113041013C080910001909101018F3F934060F4DB
S11304208EE890E090930D0180930C0187E390E0B7
S113043090930B0180930A019F918F912F910F90BC
S10F04400FBE0F901F901895F894FFCF8A
S9030000FC
