:100000000C9434000C9451000C9451000C94510049
:100010000C9451000C9451000C9451000C9451001C
:100020000C9451000C9451000C9451000C9451000C
:100030000C9451000C9451000C9451000C945100FC
:100040000C947E000C9451000C9451000C945100BF
:100050000C9451000C94C9000C9451000C94510064
:100060000C9451000C94510011241FBECFEFD8E026
:10007000DEBFCDBF11E0A0E0B1E0E0E2F2E002C0FF
:1000800005900D92A430B107D9F721E0A4E0B1E0CA
:1000900001C01D92AD30B207E1F70E946F000C94D1
:1000A0000E010C9400008FEF8AB91BB814B815B874
:1000B00010920C0110920B0185E085BD14BC80915B
:1000C000010186BD81E080936E0080E480937C0016
:1000D0008EEE80937A0010927B00789408950E94AF
:1000E0005300809105019091060181309105E9F757
:1000F0005F9A1092060110920501F3CF1F920F92A2
:100100000FB60F9211242F933F938F939F9380915B
:10011000010186BD80910B0190910C010196909395
:100120000C0180930B012091070130910801821787
:10013000930730F180910001813051F480910401E6
:100140008F5F80930401873068F0109200010AC02D
:1001500080910401815080930401811103C081E0EA
:100160008093000181E090E00090040102C0880FBC
:10017000991F0A94E2F78BB910920C0110920B01AF
:100180009F918F913F912F910F900FBE0F901F90D5
:1001900018951F920F920FB60F9211242F933F9331
:1001A0004F938F939F9380917800909179009093D3
:1001B0000A0180930901009739F121E030E0309382
:1001C0000601209305019C01215031092E3F314049
:1001D00058F48DE790E09093020180930101909391
:1001E00008018093070110C092508F3F914060F446
:1001F0008EE890E0909302018093010187E390E004
:1002000090930801809307019F918F914F913F91A7
:100210002F910F900FBE0F901F901895F894FFCF5D
:04022000017D00005C
:00000001FF
