S010000050726F6A656374312E737265630C
S11300000C9434000C9451000C9451000C94510045
S11300100C9451000C9451000C9451000C94510018
S11300200C9451000C9451000C9451000C94510008
S11300300C9451000C9451000C9451000C945100F8
S11300400C947E000C9451000C9451000C945100BB
S11300500C9451000C94AA000C9451000C9451007F
S11300600C9451000C94510011241FBECFEFD8E022
S1130070DEBFCDBF11E0A0E0B1E0E2EEF1E002C0EE
S113008005900D92A230B107D9F721E0A2E0B1E0CA
S113009001C01D92AA30B207E1F70E946F000C94D0
S11300A0EF000C9400008FEF8AB91BB814B815B890
S11300B0109209011092080185E085BD14BC80915D
S11300C0000186BD81E080936E0080E480937C0013
S11300D08EEE80937A0010927B00789408950E94AB
S11300E05300809102019091030181309105E9F759
S11300F05F9A1092030110920201F3CF1F920F92A4
S11301000FB60F9211242F933F938F939F93809157
S1130110000186BD80910801909109010196909398
S1130120090180930801209104013091050182178F
S1130130930738F08BB180958BB910920901109216
S113014008019F918F913F912F910F900FBE0F90B7
S11301501F9018951F920F920FB60F9211242F9390
S11301603F934F938F939F93809178009091790060
S11301709093070180930601009739F121E030E064
S113018030930301209302019C01215031092E3F39
S1130190314058F48DE790E0909301018093000181
S11301A0909305018093040110C092508F3F9140B9
S11301B060F48EE890E0909301018093000187E35E
S11301C090E090930501809304019F918F914F914A
S11301D03F912F910F900FBE0F901F901895F89498
S10501E0FFCF4B
S10501E27D009A
S9030000FC
