S010000050726F6A656374312E737265630C
S11300000C9434000C9451000C9451000C94510045
S11300100C9451000C9451000C9451000C94510018
S11300200C9451000C9451000C9451000C94510008
S11300300C9451000C9451000C9451000C945100F8
S11300400C947D000C9451000C9451000C945100BC
S11300500C9451000C94A8000C9451000C94510081
S11300600C9451000C94510011241FBECFEFD8E022
S1130070DEBFCDBF11E0A0E0B1E0EAECF1E002C0E8
S113008005900D92A230B107D9F721E0A2E0B1E0CA
S113009001C01D92A830B207E1F70E946C000C94D5
S11300A0E3000C9400002FEF2AB91BB890930701CA
S11300B08093060185E085BD14BC8DE386BD81E097
S11300C080936E0080E480937C008EEE80937A00AF
S11300D010927B007894089580E090E00E94530091
S11300E0809102019091030181309105E9F75F9AB3
S11300F01092030110920201F3CF1F920F920FB6D8
S11301000F9211242F933F938F939F938DE386BD7A
S113011080910601909107010196909307018093C5
S1130120060120910001309101018217930738F0F4
S11301308BB180958BB910920701109206019F91A3
S11301408F913F912F910F900FBE0F901F90189594
S11301501F920F920FB60F9211242F933F934F9338
S11301608F939F93809178009091790090930501EB
S1130170809304010097E9F021E030E0309303011B
S1130180209302019C01215031092E3F314038F463
S113019088E290E090930101809300010AC092509C
S11301A08F3F914030F484E190E09093010180937B
S11301B000019F918F914F913F912F910F900FBE0E
S10D01C00F901F901895F894FFCFDC
S10501CA280007
S9030000FC
