:100000000C9434000C9446000C9446000C9446006A
:100010000C9446000C9446000C9446000C94460048
:100020000C9446000C9446000C9446000C94460038
:100030000C9446000C9446000C9446000C94460028
:100040000C94E0010C9446000C9446000C9446007D
:100050000C9446000C9430020C9446000C9446001C
:100060000C9446000C94460011241FBECFEFD8E03C
:10007000DEBFCDBF21E0A0E0B1E001C01D92A03104
:10008000B207E1F70E94BA010C9488020C940000B8
:100090008FEF8AB91BB814B880E385B910920301B9
:1000A00010920201109205011092040181E090E08B
:1000B00090930F0180930E018DE790E090930D01D6
:1000C00080930C0110920B0110920A011092090109
:1000D0001092080187E090E0909307018093060159
:1000E00085E085BD14BC80910C0190910D0186BD09
:1000F00081E080936E0080E480937C008EEE80939C
:100100007A0010927B007894089520910801309134
:100110000901232B21F5209106013091070121507F
:100120003109309307012093060120910601309197
:1001300007018217930730F081E090E09093090166
:1001400080930801209106013091070181E090E041
:1001500002C0880F991F2A95E2F78BB90895809104
:100160000801909109010197F9F48091060190919D
:100170000701019690930701809306018091060183
:1001800090910701079720F0109209011092080141
:10019000209106013091070181E090E002C0880FB4
:1001A000991F2A95E2F78BB908958130910509F0DE
:1001B00090C0809100019091010180910001909187
:1001C00001018138910510F41BB808958091000158
:1001D000909101018038910550F08091000190913B
:1001E00001018130914018F481E08BB9089580912C
:1001F0000001909101018F3F910559F050F08091DD
:100200000001909101018138914018F483E08BB98D
:10021000089580910001909101018038914050F043
:1002200080910001909101018130924018F487E0A3
:100230008BB9089580910001909101018115924040
:1002400050F080910001909101018038924018F4A3
:100250008FE08BB9089580910001909101018F3753
:10026000924050F0809100019091010181159340DE
:1002700018F48FE18BB908958091000190910101EC
:100280008F3F924050F080910001909101018038A1
:10029000934018F48FE38BB90895809100019091F9
:1002A00001018F37934050F080910001909101013E
:1002B0008F3F934018F48FE78BB908958091000128
:1002C000909101018F3F934009F053C08FEF8BB99C
:1002D0000895892B09F04DC0809100019091010192
:1002E00080910001909101018130914018F48BB10F
:1002F0008BB9089580910001909101018F3F910584
:1003000051F048F0809100019091010181309240BC
:1003100010F4589A0895809100019091010181157F
:10032000924058F080910001909101018115934015
:1003300020F48BB183608BB9089580910001909176
:1003400001018F3F924058F080910001909101018E
:100350008F3F934020F48BB187608BB908958091D3
:100360000001909101018F3F934019F48BB18F6090
:100370008BB908950E944800C1E0D0E0809104014B
:1003800090910501892BD1F31D9B0DC01C99F6CFCF
:10039000D0930F01C0930E0180910E0190910F0137
:1003A0000E94D500EBCF1D99E9CF10920F0110925A
:1003B0000E0180910E0190910F010E94D500DECFB9
:1003C0001F920F920FB60F9211242F933F934F93CA
:1003D0005F936F937F938F939F93AF93BF93EF93AD
:1003E000FF9380910C0190910D0186BD80910201D7
:1003F0009091030101969093030180930201209153
:1004000002013091030180910A0190910B0128179C
:100410003907A8F01D9B0BC01C9B11C080E090E029
:100420000E948500109203011092020108C084E02E
:1004300090E00E9485001092030110920201FF914A
:10044000EF91BF91AF919F918F917F916F915F914C
:100450004F913F912F910F900FBE0F901F901895C5
:100460001F920F920FB60F9211242F938F939F9389
:100470008091780090917900909301018093000120
:100480008091000190910101892B31F081E090E091
:1004900090930501809304018091000190910101E6
:1004A0008F3F914098F48091000190910101892B38
:1004B00069F087E290E090930D0180930C0189E050
:1004C00090E090930B0180930A011AC08091000183
:1004D000909101018F3F934098F480910001909199
:1004E00001018115924060F08EE890E090930D013B
:1004F00080930C0187E390E090930B0180930A01B5
:100500009F918F912F910F900FBE0F901F90189574
:04051000F894FFCF8D
:00000001FF
