:100000000C9434000C9451000C9451000C94510049
:100010000C9451000C9451000C9451000C9451001C
:100020000C9451000C9451000C9451000C9451000C
:100030000C9451000C9451000C9451000C945100FC
:100040000C94BD000C9451000C9451000C94510080
:100050000C9451000C94FA000C9451000C94510033
:100060000C9451000C94510011241FBECFEFD8E026
:10007000DEBFCDBF11E0A0E0B1E0E2E8F2E002C0F7
:1000800005900D92A430B107D9F721E0A4E0B1E0CA
:1000900001C01D92AE30B207E1F70E94AE000C9491
:1000A0003F010C9400008FEF8AB91BB814B88FEC95
:1000B00085B910920D0110920C0185E085BD14BC2C
:1000C0008091020186BD81E080936E0080E4809380
:1000D0007C008EEE80937A0010927B0078940895D5
:1000E000209100013091010121303105D1F420919E
:1000F0000401309105012F5F3F4F3093050120939C
:1001000004012817390720F0109201011092000114
:1001100081E090E002C0880F991F2A95E2F78BB921
:100120000895232BD1F4809104019091050101974A
:100130009093050180930401009731F421E030E0B1
:10014000309301012093000121E030E0A90102C0B9
:10015000440F551F8A95E2F74BB908950E9453004A
:10016000809106019091070181309105E9F75F9A2E
:100170001092070110920601F3CF1F920F920FB653
:100180000F9211242F933F934F935F936F937F931D
:100190008F939F93AF93BF93EF93FF93809102014F
:1001A00086BD80910C0190910D01019690930D01F7
:1001B00080930C0120910801309109018217930767
:1001C00040F087E090E00E94700010920D011092C4
:1001D0000C01FF91EF91BF91AF919F918F917F9112
:1001E0006F915F914F913F912F910F900FBE0F90A4
:1001F0001F9018951F920F920FB60F9211242F93F4
:100200003F934F938F939F938091780090917900C3
:1002100090930B0180930A01009739F121E030E0BF
:1002200030930701209306019C01215031092E3F94
:10023000314058F48DE790E09093030180930201E0
:10024000909309018093080110C092508F3F914014
:1002500060F48EE890E0909303018093020187E3BD
:1002600090E090930901809308019F918F914F91A5
:100270003F912F910F900FBE0F901F901895F894FB
:02028000FFCFAE
:0402820001007D00FA
:00000001FF
