S010000050726F6A656374312E737265630C
S11300000C9434000C9451000C9451000C94510045
S11300100C9451000C9451000C9451000C94510018
S11300200C9451000C9451000C9451000C94510008
S11300300C9451000C9451000C9451000C945100F8
S11300400C944B010C9451000C9451000C945100ED
S11300500C9451000C9497010C9451000C94510091
S11300600C9451000C94510011241FBECFEFD8E022
S1130070DEBFCDBF11E0A0E0B1E0E0ECF3E002C0F0
S113008005900D92A630B107D9F721E0A6E0B1E0C2
S113009001C01D92A031B207E1F70E9430010C9417
S11300A0DE010C9400008FEF8AB91BB814B880E30A
S11300B085B910920F0110920E0185E085BD14BC24
S11300C08091040186BD81E080936E0080E480937A
S11300D07C008EEE80937A0010927B0078940895D1
S11300E0209106013091070121153105E1F4209199
S11300F00001309101012150310930930101209315
S113010000018217930730F081E090E0909307019B
S11301108093060181E090E002C0880F991F2A9520
S1130120E2F78BB9089521303105C9F480910001BB
S11301309091010101969093010180930001873011
S1130140910520F0109207011092060121E030E0A1
S1130150A90102C0440F551F8A95E2F74BB90895CF
S11301608130910509F04CC080910C0190910D01F2
S11301708138910510F41BB808959C012058310969
S11301802138310518F481E08BB908959C013A9522
S11301902138310518F483E08BB908959C01205867
S11301A031402138310518F487E08BB908959C015A
S11301B032502038310518F48FE08BB908959C0132
S11301C02F5732402138310518F48FE18BB9089547
S11301D09C012F5F32402138310518F48FE38BB92D
S11301E008959C012F5733402038310518F48FE7C8
S11301F08BB908958F3F934091F58FEF8BB9089594
S1130200892B69F580910C0190910D01813041E0B9
S1130210940718F48BB18BB908959C013A95213059
S1130220314010F4589A08959C0132502F3F310503
S113023009F020F48BB183608BB908959C012F5F82
S113024032402F3F310509F020F48BB187608BB920
S113025008958F3F934019F48BB18F608BB9089543
S11302600E945300C1E0D0E01D9B0AC01C99FCCF42
S1130270D0930301C0930201CE010E94B000F4CFD9
S11302801D99F2CF109203011092020180E090E0D8
S11302900E94B000E9CF1F920F920FB60F92112463
S11302A02F933F934F935F936F937F938F939F937A
S11302B0AF93BF93EF93FF938091040186BD809128
S11302C00E0190910F01019690930F0180930E01FE
S11302D020910A0130910B0182179307B8F01D9BFE
S11302E00BC01C9B13C080E090E00E947000109231
S11302F00F0110920E010AC084E090E00E94700089
S113030010920F0110920E018BB18BB9FF91EF91F6
S1130310BF91AF919F918F917F916F915F914F9119
S11303203F912F910F900FBE0F901F9018951F9221
S11303300F920FB60F9211242F933F934F938F93E5
S11303409F93809178009091790090930D01809310
S11303500C01009749F121E030E03093090120932A
S113036008019C01215031092E3F314068F487E295
S113037090E0909305018093040189E090E09093CC
S11303800B0180930A0110C092508F3F914060F49A
S11303908EE890E0909305018093040187E390E058
S11303A090930B0180930A019F918F914F913F91FC
S11303B02F910F900FBE0F901F901895F894FFCFB8
S10903C0070001007D00AE
S9030000FC
